:030000000201FCFE
:0C01FC00787FE4F6D8FD7581200200C178
:1000C10012020875137F75147FE4F515D290C29161
:1000D1007FD01201EBC290D2917FD01201EB20931D
:1000E100EB7F1E1201EB2093E3D290D291750B00AE
:1000F100750C00750D14750E00750F007510157BCC
:10010100007A0079131200037F581202147F3D1206
:100111000214AF1312014D7F201202147F591202F3
:10012100147F3D120214AF1412014D7F20120214EC
:100131007F5A1202147F3D120214AF1512014D7F36
:0C0141000A1202147F0D1202140200C406
:0C020800758920758DFD759850D28E22EE
:080214008F993099FDC2992277
:1001C6008B168A178918AB16AA17A91812018B6005
:1001D600130518E5187002051714F912018BFF12A2
:0501E600021480E2227A
:10014D00EF75F06484FEEF75F00A8475F00A84ADE6
:10015D00F0EF75F00A84ACF0EED394004007EE2476
:10016D0030FF120214EED394005005ED94004007B9
:0E017D00ED2430FF120214EC2430FF020214B5
:060003008B088A09890A3E
:10000900D200E4F5112000030200C0E5A044E0F5A8
:10001900112409604A24FC603124FE6018147057C9
:10002900AB0BAA0CA90D12018BD394FD504474019A
:100039001201A4803DAB0BAA0CA90D12018BC3942C
:1000490002400574FF1201A48028AB08AA09A90A75
:1000590012018BC39402400574FF1201A48013ABF3
:1000690008AA09A90A12018BD394FD50057401123B
:1000790001A47F0A1201EBE51164EF70887F1E125B
:0F00890001EBE5A044E0F51164EF600302000E07
:10009800F512AB0EAA0FA91012018BD394F55005D7
:1000A80074011201A47F0A1201EB0512E512C39430
:0500B800FE40DFC20064
:0300BD0002000E30
:0100C000221D
:1001EB00E4FEEEC39F5009E4FD0DBD7DFC0E80F2D5
:0101FB0022E1
:10018B00BB010689828A83E0225002E722BBFE0272
:09019B00E32289828A83E49322A5
:1001A400BB010989828A83F8E028F022500327F7EB
:1001B40022BBFE05F8E328F3228A838982F8E493BC
:0201C4002822EF
:00000001FF
